{"contracts/LifeContract.sol":{"LifeContract":{"abi":[{"inputs":[{"internalType":"uint256","name":"thresholdDays","type":"uint256"}],"stateMutability":"nonpayable","type":"constructor"},{"anonymous":false,"inputs":[{"indexed":true,"internalType":"uint256","name":"timestamp","type":"uint256"},{"indexed":false,"internalType":"uint256","name":"totalValue","type":"uint256"},{"indexed":false,"internalType":"uint256","name":"heirCount","type":"uint256"}],"name":"EstateExecuted","type":"event"},{"anonymous":false,"inputs":[{"indexed":true,"internalType":"uint256","name":"timestamp","type":"uint256"},{"indexed":true,"internalType":"address","name":"caller","type":"address"}],"name":"HeartbeatReceived","type":"event"},{"anonymous":false,"inputs":[{"indexed":true,"internalType":"address","name":"heir","type":"address"},{"indexed":false,"internalType":"uint256","name":"allocationBps","type":"uint256"}],"name":"HeirAdded","type":"event"},{"anonymous":false,"inputs":[{"indexed":true,"internalType":"address","name":"heir","type":"address"},{"indexed":false,"internalType":"uint256","name":"nullifierHash","type":"uint256"}],"name":"HeirRegistered","type":"event"},{"anonymous":false,"inputs":[{"indexed":false,"internalType":"uint256","name":"oldThreshold","type":"uint256"},{"indexed":false,"internalType":"uint256","name":"newThreshold","type":"uint256"}],"name":"ThresholdUpdated","type":"event"},{"stateMutability":"payable","type":"fallback"},{"inputs":[{"internalType":"address payable","name":"heir_","type":"address"},{"internalType":"uint256","name":"allocationBps_","type":"uint256"}],"name":"addHeir","outputs":[],"stateMutability":"nonpayable","type":"function"},{"inputs":[],"name":"executeEstate","outputs":[],"stateMutability":"nonpayable","type":"function"},{"inputs":[],"name":"executed","outputs":[{"internalType":"bool","name":"","type":"bool"}],"stateMutability":"view","type":"function"},{"inputs":[],"name":"getDaysElapsed","outputs":[{"internalType":"uint256","name":"","type":"uint256"}],"stateMutability":"view","type":"function"},{"inputs":[{"internalType":"uint256","name":"index","type":"uint256"}],"name":"getHeir","outputs":[{"internalType":"address","name":"wallet","type":"address"},{"internalType":"uint256","name":"allocationBps","type":"uint256"},{"internalType":"uint256","name":"nullifierHash","type":"uint256"},{"internalType":"bool","name":"isVerified","type":"bool"}],"stateMutability":"view","type":"function"},{"inputs":[],"name":"getHeirsCount","outputs":[{"internalType":"uint256","name":"","type":"uint256"}],"stateMutability":"view","type":"function"},{"inputs":[],"name":"getStatus","outputs":[{"internalType":"uint256","name":"lastPing_","type":"uint256"},{"internalType":"uint256","name":"threshold_","type":"uint256"},{"internalType":"uint256","name":"daysElapsed","type":"uint256"},{"internalType":"uint256","name":"thresholdDays","type":"uint256"},{"internalType":"bool","name":"inactive","type":"bool"}],"stateMutability":"view","type":"function"},{"inputs":[],"name":"getThresholdDays","outputs":[{"internalType":"uint256","name":"","type":"uint256"}],"stateMutability":"view","type":"function"},{"inputs":[{"internalType":"address","name":"","type":"address"}],"name":"isHeir","outputs":[{"internalType":"bool","name":"","type":"bool"}],"stateMutability":"view","type":"function"},{"inputs":[],"name":"isInactive","outputs":[{"internalType":"bool","name":"","type":"bool"}],"stateMutability":"view","type":"function"},{"inputs":[],"name":"lastPing","outputs":[{"internalType":"uint256","name":"","type":"uint256"}],"stateMutability":"view","type":"function"},{"inputs":[],"name":"owner","outputs":[{"internalType":"address","name":"","type":"address"}],"stateMutability":"view","type":"function"},{"inputs":[],"name":"ping","outputs":[],"stateMutability":"nonpayable","type":"function"},{"inputs":[{"internalType":"address","name":"heir_","type":"address"},{"internalType":"uint256","name":"nullifierHash_","type":"uint256"}],"name":"registerHeir","outputs":[],"stateMutability":"nonpayable","type":"function"},{"inputs":[{"internalType":"uint256","name":"thresholdDays","type":"uint256"}],"name":"setThreshold","outputs":[],"stateMutability":"nonpayable","type":"function"},{"inputs":[],"name":"threshold","outputs":[{"internalType":"uint256","name":"","type":"uint256"}],"stateMutability":"view","type":"function"},{"stateMutability":"payable","type":"receive"}],"evm":{"bytecode":{"linkReferences":{},"object":"608060405234801561001057600080fd5b5060405161120b38038061120b83398101604081905261002f916100bb565b6000811161008f5760405162461bcd60e51b815260206004820152602360248201527f4c696665436f6e74726163743a207468726573686f6c64206d7573742062652060448201526203e20360ec1b606482015260840160405180910390fd5b600080546001600160a01b031916331790556100ae81620151806100d4565b60025550426001556100ff565b6000602082840312156100cd57600080fd5b5051919050565b80820281158282048414176100f957634e487b7160e01b600052601160045260246000fd5b92915050565b6110fd8061010e6000396000f3fe6080604052600436106100eb5760003560e01c80636a15684011610084578063975c230811610056578063975c2308146102985780639b3f256d146102e45780639cdd47f2146102f9578063e4c164831461031957005b80636a1568401461020b5780636d820fda1461022b5780638da5cb5b14610240578063960bfe041461027857005b8063568ddfc6116100bd578063568ddfc61461019c578063598f6a16146101cc5780635c36b186146101e15780635e829a02146101f657005b80632760c57e146100f457806331a38c891461011d57806342cde4e8146101475780634e69d5601461015d57005b366100f257005b005b34801561010057600080fd5b5061010a60015481565b6040519081526020015b60405180910390f35b34801561012957600080fd5b506003546101379060ff1681565b6040519015158152602001610114565b34801561015357600080fd5b5061010a60025481565b34801561016957600080fd5b5061017261032e565b6040805195865260208601949094529284019190915260608301521515608082015260a001610114565b3480156101a857600080fd5b506101376101b7366004610f38565b60056020526000908152604090205460ff1681565b3480156101d857600080fd5b5060045461010a565b3480156101ed57600080fd5b506100f261038c565b34801561020257600080fd5b50610137610416565b34801561021757600080fd5b506100f2610226366004610f5c565b61042f565b34801561023757600080fd5b506100f2610707565b34801561024c57600080fd5b50600054610260906001600160a01b031681565b6040516001600160a01b039091168152602001610114565b34801561028457600080fd5b506100f2610293366004610f88565b6109aa565b3480156102a457600080fd5b506102b86102b3366004610f88565b610aa6565b604080516001600160a01b03909516855260208501939093529183015215156060820152608001610114565b3480156102f057600080fd5b5061010a610b82565b34801561030557600080fd5b506100f2610314366004610f5c565b610ba5565b34801561032557600080fd5b5061010a610f0d565b6000806000806000600154600254620151806001544261034e9190610fb7565b6103589190610fd0565b620151806002546103699190610fd0565b6002546001546103799190610ff2565b4211945094509450945094509091929394565b6000546001600160a01b031633146103bf5760405162461bcd60e51b81526004016103b690611005565b60405180910390fd5b60035460ff16156103e25760405162461bcd60e51b81526004016103b69061103c565b4260018190556040513391907f427757034ecd29604838dce1dd129f0fef437e80439c32b7c995151fd5f563fd90600090a3565b60006002546001546104289190610ff2565b4211905090565b60035460ff16156104525760405162461bcd60e51b81526004016103b69061103c565b6001600160a01b03821660009081526005602052604090205460ff166104ba5760405162461bcd60e51b815260206004820152601960248201527f4c696665436f6e74726163743a206e6f7420616e20686569720000000000000060448201526064016103b6565b336001600160a01b03831614806104db57506000546001600160a01b031633145b6105275760405162461bcd60e51b815260206004820152601c60248201527f4c696665436f6e74726163743a206e6f7420617574686f72697a65640000000060448201526064016103b6565b806000036105775760405162461bcd60e51b815260206004820152601f60248201527f4c696665436f6e74726163743a20696e76616c6964206e756c6c69666965720060448201526064016103b6565b60008181526006602052604090205460ff16156105e25760405162461bcd60e51b8152602060048201526024808201527f4c696665436f6e74726163743a206e756c6c696669657220616c7265616479206044820152631d5cd95960e21b60648201526084016103b6565b6000818152600660205260408120805460ff191660011790555b60045481101561070257826001600160a01b03166004828154811061062357610623611081565b60009182526020909120600490910201546001600160a01b0316036106f057816004828154811061065657610656611081565b90600052602060002090600402016002018190555060016004828154811061068057610680611081565b906000526020600020906004020160030160006101000a81548160ff021916908315150217905550826001600160a01b03167f71797eb334a44a551570e47cd81222cfb63cc963dab1d0680ee1093dee85c2fb836040516106e391815260200190565b60405180910390a2505050565b806106fa81611097565b9150506105fc565b505050565b60035460ff161561072a5760405162461bcd60e51b81526004016103b69061103c565b60025460015461073a9190610ff2565b42116107945760405162461bcd60e51b815260206004820152602360248201527f4c696665436f6e74726163743a206f776e6572206973207374696c6c2061637460448201526269766560e81b60648201526084016103b6565b6004546107ed5760405162461bcd60e51b815260206004820152602160248201527f4c696665436f6e74726163743a206e6f206865697273207265676973746572656044820152601960fa1b60648201526084016103b6565b6003805460ff191660011790554760005b6004548110156109625760006004828154811061081d5761081d611081565b90600052602060002090600402016001015411801561083c5750600082115b156109505760006127106004838154811061085957610859611081565b9060005260206000209060040201600101548461087691906110b0565b6108809190610fd0565b9050801561094e5760006004838154811061089d5761089d611081565b600091825260208220600490910201546040516001600160a01b039091169184919081818185875af1925050503d80600081146108f6576040519150601f19603f3d011682016040523d82523d6000602084013e6108fb565b606091505b505090508061094c5760405162461bcd60e51b815260206004820152601d60248201527f4c696665436f6e74726163743a207472616e73666572206661696c656400000060448201526064016103b6565b505b505b8061095a81611097565b9150506107fe565b5060045460405142917f4bc83c1b62e2c8393f092f6828cd877f30260de51b56fd2a05a3113d247e652d9161099f91858252602082015260400190565b60405180910390a250565b6000546001600160a01b031633146109d45760405162461bcd60e51b81526004016103b690611005565b60035460ff16156109f75760405162461bcd60e51b81526004016103b69061103c565b60008111610a535760405162461bcd60e51b815260206004820152602360248201527f4c696665436f6e74726163743a207468726573686f6c64206d7573742062652060448201526203e20360ec1b60648201526084016103b6565b600254610a6382620151806110b0565b60028190556040805183815260208101929092527fb06a54caabe58475c86c2bf9df3f2f06dd1213e9e10659c293117fe4893b274b910160405180910390a15050565b6000806000806004805490508510610b0a5760405162461bcd60e51b815260206004820152602160248201527f4c696665436f6e74726163743a20696e646578206f7574206f6620626f756e646044820152607360f81b60648201526084016103b6565b600060048681548110610b1f57610b1f611081565b60009182526020918290206040805160808101825260049390930290910180546001600160a01b03168084526001820154948401859052600282015492840183905260039091015460ff1615156060909301839052999298509650945092505050565b60006201518060015442610b969190610fb7565b610ba09190610fd0565b905090565b6000546001600160a01b03163314610bcf5760405162461bcd60e51b81526004016103b690611005565b60035460ff1615610bf25760405162461bcd60e51b81526004016103b69061103c565b6001600160a01b038216610c485760405162461bcd60e51b815260206004820152601a60248201527f4c696665436f6e74726163743a207a65726f206164647265737300000000000060448201526064016103b6565b6001600160a01b03821660009081526005602052604090205460ff1615610cb15760405162461bcd60e51b815260206004820152601d60248201527f4c696665436f6e74726163743a20616c726561647920616e206865697200000060448201526064016103b6565b600081118015610cc357506127108111155b610d0f5760405162461bcd60e51b815260206004820181905260248201527f4c696665436f6e74726163743a20696e76616c696420616c6c6f636174696f6e60448201526064016103b6565b6000805b600454811015610d615760048181548110610d3057610d30611081565b90600052602060002090600402016001015482610d4d9190610ff2565b915080610d5981611097565b915050610d13565b50612710610d6f8383610ff2565b1115610dcb5760405162461bcd60e51b815260206004820152602560248201527f4c696665436f6e74726163743a20746f74616c20616c6c6f636174696f6e203e604482015264203130302560d81b60648201526084016103b6565b604080516080810182526001600160a01b0380861680835260208084018781526000858701818152606087018281526004805460018181018355828652995191027f8a35acfbc15ff81a39ae7d344fd709f28e8600b4aa8c65c6b64bfe7fe36bd19b81018054929099166001600160a01b03199092169190911790975592517f8a35acfbc15ff81a39ae7d344fd709f28e8600b4aa8c65c6b64bfe7fe36bd19c870155517f8a35acfbc15ff81a39ae7d344fd709f28e8600b4aa8c65c6b64bfe7fe36bd19d86015590517f8a35acfbc15ff81a39ae7d344fd709f28e8600b4aa8c65c6b64bfe7fe36bd19e909401805494151560ff1995861617905582815260059091528490208054909216909217905590517f53ecd725315076d49de41e105a400b4659b4eb2060f6677e74e2a4cb645b4785906106e39085815260200190565b600062015180600254610ba09190610fd0565b6001600160a01b0381168114610f3557600080fd5b50565b600060208284031215610f4a57600080fd5b8135610f5581610f20565b9392505050565b60008060408385031215610f6f57600080fd5b8235610f7a81610f20565b946020939093013593505050565b600060208284031215610f9a57600080fd5b5035919050565b634e487b7160e01b600052601160045260246000fd5b81810381811115610fca57610fca610fa1565b92915050565b600082610fed57634e487b7160e01b600052601260045260246000fd5b500490565b80820180821115610fca57610fca610fa1565b60208082526017908201527f4c696665436f6e74726163743a206e6f74206f776e6572000000000000000000604082015260600190565b60208082526025908201527f4c696665436f6e74726163743a2065737461746520616c72656164792065786560408201526418dd5d195960da1b606082015260800190565b634e487b7160e01b600052603260045260246000fd5b6000600182016110a9576110a9610fa1565b5060010190565b8082028115828204841417610fca57610fca610fa156fea26469706673582212202abfd7d367a823445cf9f878a25cb0ffb10da7e2e6ffa1c9fb9ca7a299d5c06264736f6c63430008140033","opcodes":"PUSH1 0x80 PUSH1 0x40 MSTORE CALLVALUE DUP1 ISZERO PUSH2 0x10 JUMPI PUSH1 0x0 DUP1 REVERT JUMPDEST POP PUSH1 0x40 MLOAD PUSH2 0x120B CODESIZE SUB DUP1 PUSH2 0x120B DUP4 CODECOPY DUP2 ADD PUSH1 0x40 DUP2 SWAP1 MSTORE PUSH2 0x2F SWAP2 PUSH2 0xBB JUMP JUMPDEST PUSH1 0x0 DUP2 GT PUSH2 0x8F JUMPI PUSH1 0x40 MLOAD PUSH3 0x461BCD PUSH1 0xE5 SHL DUP2 MSTORE PUSH1 0x20 PUSH1 0x4 DUP3 ADD MSTORE PUSH1 0x23 PUSH1 0x24 DUP3 ADD MSTORE PUSH32 0x4C696665436F6E74726163743A207468726573686F6C64206D75737420626520 PUSH1 0x44 DUP3 ADD MSTORE PUSH3 0x3E203 PUSH1 0xEC SHL PUSH1 0x64 DUP3 ADD MSTORE PUSH1 0x84 ADD PUSH1 0x40 MLOAD DUP1 SWAP2 SUB SWAP1 REVERT JUMPDEST PUSH1 0x0 DUP1 SLOAD PUSH1 0x1 PUSH1 0x1 PUSH1 0xA0 SHL SUB NOT AND CALLER OR SWAP1 SSTORE PUSH2 0xAE DUP2 PUSH3 0x15180 PUSH2 0xD4 JUMP JUMPDEST PUSH1 0x2 SSTORE POP TIMESTAMP PUSH1 0x1 SSTORE PUSH2 0xFF JUMP JUMPDEST PUSH1 0x0 PUSH1 0x20 DUP3 DUP5 SUB SLT ISZERO PUSH2 0xCD JUMPI PUSH1 0x0 DUP1 REVERT JUMPDEST POP MLOAD SWAP2 SWAP1 POP JUMP JUMPDEST DUP1 DUP3 MUL DUP2 ISZERO DUP3 DUP3 DIV DUP5 EQ OR PUSH2 0xF9 JUMPI PUSH4 0x4E487B71 PUSH1 0xE0 SHL PUSH1 0x0 MSTORE PUSH1 0x11 PUSH1 0x4 MSTORE PUSH1 0x24 PUSH1 0x0 REVERT JUMPDEST SWAP3 SWAP2 POP POP JUMP JUMPDEST PUSH2 0x10FD DUP1 PUSH2 0x10E PUSH1 0x0 CODECOPY PUSH1 0x0 RETURN INVALID PUSH1 0x80 PUSH1 0x40 MSTORE PUSH1 0x4 CALLDATASIZE LT PUSH2 0xEB JUMPI PUSH1 0x0 CALLDATALOAD PUSH1 0xE0 SHR DUP1 PUSH4 0x6A156840 GT PUSH2 0x84 JUMPI DUP1 PUSH4 0x975C2308 GT PUSH2 0x56 JUMPI DUP1 PUSH4 0x975C2308 EQ PUSH2 0x298 JUMPI DUP1 PUSH4 0x9B3F256D EQ PUSH2 0x2E4 JUMPI DUP1 PUSH4 0x9CDD47F2 EQ PUSH2 0x2F9 JUMPI DUP1 PUSH4 0xE4C16483 EQ PUSH2 0x319 JUMPI STOP JUMPDEST DUP1 PUSH4 0x6A156840 EQ PUSH2 0x20B JUMPI DUP1 PUSH4 0x6D820FDA EQ PUSH2 0x22B JUMPI DUP1 PUSH4 0x8DA5CB5B EQ PUSH2 0x240 JUMPI DUP1 PUSH4 0x960BFE04 EQ PUSH2 0x278 JUMPI STOP JUMPDEST DUP1 PUSH4 0x568DDFC6 GT PUSH2 0xBD JUMPI DUP1 PUSH4 0x568DDFC6 EQ PUSH2 0x19C JUMPI DUP1 PUSH4 0x598F6A16 EQ PUSH2 0x1CC JUMPI DUP1 PUSH4 0x5C36B186 EQ PUSH2 0x1E1 JUMPI DUP1 PUSH4 0x5E829A02 EQ PUSH2 0x1F6 JUMPI STOP JUMPDEST DUP1 PUSH4 0x2760C57E EQ PUSH2 0xF4 JUMPI DUP1 PUSH4 0x31A38C89 EQ PUSH2 0x11D JUMPI DUP1 PUSH4 0x42CDE4E8 EQ PUSH2 0x147 JUMPI DUP1 PUSH4 0x4E69D560 EQ PUSH2 0x15D JUMPI STOP JUMPDEST CALLDATASIZE PUSH2 0xF2 JUMPI STOP JUMPDEST STOP JUMPDEST CALLVALUE DUP1 ISZERO PUSH2 0x100 JUMPI PUSH1 0x0 DUP1 REVERT JUMPDEST POP PUSH2 0x10A PUSH1 0x1 SLOAD DUP2 JUMP JUMPDEST PUSH1 0x40 MLOAD SWAP1 DUP2 MSTORE PUSH1 0x20 ADD JUMPDEST PUSH1 0x40 MLOAD DUP1 SWAP2 SUB SWAP1 RETURN JUMPDEST CALLVALUE DUP1 ISZERO PUSH2 0x129 JUMPI PUSH1 0x0 DUP1 REVERT JUMPDEST POP PUSH1 0x3 SLOAD PUSH2 0x137 SWAP1 PUSH1 0xFF AND DUP2 JUMP JUMPDEST PUSH1 0x40 MLOAD SWAP1 ISZERO ISZERO DUP2 MSTORE PUSH1 0x20 ADD PUSH2 0x114 JUMP JUMPDEST CALLVALUE DUP1 ISZERO PUSH2 0x153 JUMPI PUSH1 0x0 DUP1 REVERT JUMPDEST POP PUSH2 0x10A PUSH1 0x2 SLOAD DUP2 JUMP JUMPDEST CALLVALUE DUP1 ISZERO PUSH2 0x169 JUMPI PUSH1 0x0 DUP1 REVERT JUMPDEST POP PUSH2 0x172 PUSH2 0x32E JUMP JUMPDEST PUSH1 0x40 DUP1 MLOAD SWAP6 DUP7 MSTORE PUSH1 0x20 DUP7 ADD SWAP5 SWAP1 SWAP5 MSTORE SWAP3 DUP5 ADD SWAP2 SWAP1 SWAP2 MSTORE PUSH1 0x60 DUP4 ADD MSTORE ISZERO ISZERO PUSH1 0x80 DUP3 ADD MSTORE PUSH1 0xA0 ADD PUSH2 0x114 JUMP JUMPDEST CALLVALUE DUP1 ISZERO PUSH2 0x1A8 JUMPI PUSH1 0x0 DUP1 REVERT JUMPDEST POP PUSH2 0x137 PUSH2 0x1B7 CALLDATASIZE PUSH1 0x4 PUSH2 0xF38 JUMP JUMPDEST PUSH1 0x5 PUSH1 0x20 MSTORE PUSH1 0x0 SWAP1 DUP2 MSTORE PUSH1 0x40 SWAP1 KECCAK256 SLOAD PUSH1 0xFF AND DUP2 JUMP JUMPDEST CALLVALUE DUP1 ISZERO PUSH2 0x1D8 JUMPI PUSH1 0x0 DUP1 REVERT JUMPDEST POP PUSH1 0x4 SLOAD PUSH2 0x10A JUMP JUMPDEST CALLVALUE DUP1 ISZERO PUSH2 0x1ED JUMPI PUSH1 0x0 DUP1 REVERT JUMPDEST POP PUSH2 0xF2 PUSH2 0x38C JUMP JUMPDEST CALLVALUE DUP1 ISZERO PUSH2 0x202 JUMPI PUSH1 0x0 DUP1 REVERT JUMPDEST POP PUSH2 0x137 PUSH2 0x416 JUMP JUMPDEST CALLVALUE DUP1 ISZERO PUSH2 0x217 JUMPI PUSH1 0x0 DUP1 REVERT JUMPDEST POP PUSH2 0xF2 PUSH2 0x226 CALLDATASIZE PUSH1 0x4 PUSH2 0xF5C JUMP JUMPDEST PUSH2 0x42F JUMP JUMPDEST CALLVALUE DUP1 ISZERO PUSH2 0x237 JUMPI PUSH1 0x0 DUP1 REVERT JUMPDEST POP PUSH2 0xF2 PUSH2 0x707 JUMP JUMPDEST CALLVALUE DUP1 ISZERO PUSH2 0x24C JUMPI PUSH1 0x0 DUP1 REVERT JUMPDEST POP PUSH1 0x0 SLOAD PUSH2 0x260 SWAP1 PUSH1 0x1 PUSH1 0x1 PUSH1 0xA0 SHL SUB AND DUP2 JUMP JUMPDEST PUSH1 0x40 MLOAD PUSH1 0x1 PUSH1 0x1 PUSH1 0xA0 SHL SUB SWAP1 SWAP2 AND DUP2 MSTORE PUSH1 0x20 ADD PUSH2 0x114 JUMP JUMPDEST CALLVALUE DUP1 ISZERO PUSH2 0x284 JUMPI PUSH1 0x0 DUP1 REVERT JUMPDEST POP PUSH2 0xF2 PUSH2 0x293 CALLDATASIZE PUSH1 0x4 PUSH2 0xF88 JUMP JUMPDEST PUSH2 0x9AA JUMP JUMPDEST CALLVALUE DUP1 ISZERO PUSH2 0x2A4 JUMPI PUSH1 0x0 DUP1 REVERT JUMPDEST POP PUSH2 0x2B8 PUSH2 0x2B3 CALLDATASIZE PUSH1 0x4 PUSH2 0xF88 JUMP JUMPDEST PUSH2 0xAA6 JUMP JUMPDEST PUSH1 0x40 DUP1 MLOAD PUSH1 0x1 PUSH1 0x1 PUSH1 0xA0 SHL SUB SWAP1 SWAP6 AND DUP6 MSTORE PUSH1 0x20 DUP6 ADD SWAP4 SWAP1 SWAP4 MSTORE SWAP2 DUP4 ADD MSTORE ISZERO ISZERO PUSH1 0x60 DUP3 ADD MSTORE PUSH1 0x80 ADD PUSH2 0x114 JUMP JUMPDEST CALLVALUE DUP1 ISZERO PUSH2 0x2F0 JUMPI PUSH1 0x0 DUP1 REVERT JUMPDEST POP PUSH2 0x10A PUSH2 0xB82 JUMP JUMPDEST CALLVALUE DUP1 ISZERO PUSH2 0x305 JUMPI PUSH1 0x0 DUP1 REVERT JUMPDEST POP PUSH2 0xF2 PUSH2 0x314 CALLDATASIZE PUSH1 0x4 PUSH2 0xF5C JUMP JUMPDEST PUSH2 0xBA5 JUMP JUMPDEST CALLVALUE DUP1 ISZERO PUSH2 0x325 JUMPI PUSH1 0x0 DUP1 REVERT JUMPDEST POP PUSH2 0x10A PUSH2 0xF0D JUMP JUMPDEST PUSH1 0x0 DUP1 PUSH1 0x0 DUP1 PUSH1 0x0 PUSH1 0x1 SLOAD PUSH1 0x2 SLOAD PUSH3 0x15180 PUSH1 0x1 SLOAD TIMESTAMP PUSH2 0x34E SWAP2 SWAP1 PUSH2 0xFB7 JUMP JUMPDEST PUSH2 0x358 SWAP2 SWAP1 PUSH2 0xFD0 JUMP JUMPDEST PUSH3 0x15180 PUSH1 0x2 SLOAD PUSH2 0x369 SWAP2 SWAP1 PUSH2 0xFD0 JUMP JUMPDEST PUSH1 0x2 SLOAD PUSH1 0x1 SLOAD PUSH2 0x379 SWAP2 SWAP1 PUSH2 0xFF2 JUMP JUMPDEST TIMESTAMP GT SWAP5 POP SWAP5 POP SWAP5 POP SWAP5 POP SWAP5 POP SWAP1 SWAP2 SWAP3 SWAP4 SWAP5 JUMP JUMPDEST PUSH1 0x0 SLOAD PUSH1 0x1 PUSH1 0x1 PUSH1 0xA0 SHL SUB AND CALLER EQ PUSH2 0x3BF JUMPI PUSH1 0x40 MLOAD PUSH3 0x461BCD PUSH1 0xE5 SHL DUP2 MSTORE PUSH1 0x4 ADD PUSH2 0x3B6 SWAP1 PUSH2 0x1005 JUMP JUMPDEST PUSH1 0x40 MLOAD DUP1 SWAP2 SUB SWAP1 REVERT JUMPDEST PUSH1 0x3 SLOAD PUSH1 0xFF AND ISZERO PUSH2 0x3E2 JUMPI PUSH1 0x40 MLOAD PUSH3 0x461BCD PUSH1 0xE5 SHL DUP2 MSTORE PUSH1 0x4 ADD PUSH2 0x3B6 SWAP1 PUSH2 0x103C JUMP JUMPDEST TIMESTAMP PUSH1 0x1 DUP2 SWAP1 SSTORE PUSH1 0x40 MLOAD CALLER SWAP2 SWAP1 PUSH32 0x427757034ECD29604838DCE1DD129F0FEF437E80439C32B7C995151FD5F563FD SWAP1 PUSH1 0x0 SWAP1 LOG3 JUMP JUMPDEST PUSH1 0x0 PUSH1 0x2 SLOAD PUSH1 0x1 SLOAD PUSH2 0x428 SWAP2 SWAP1 PUSH2 0xFF2 JUMP JUMPDEST TIMESTAMP GT SWAP1 POP SWAP1 JUMP JUMPDEST PUSH1 0x3 SLOAD PUSH1 0xFF AND ISZERO PUSH2 0x452 JUMPI PUSH1 0x40 MLOAD PUSH3 0x461BCD PUSH1 0xE5 SHL DUP2 MSTORE PUSH1 0x4 ADD PUSH2 0x3B6 SWAP1 PUSH2 0x103C JUMP JUMPDEST PUSH1 0x1 PUSH1 0x1 PUSH1 0xA0 SHL SUB DUP3 AND PUSH1 0x0 SWAP1 DUP2 MSTORE PUSH1 0x5 PUSH1 0x20 MSTORE PUSH1 0x40 SWAP1 KECCAK256 SLOAD PUSH1 0xFF AND PUSH2 0x4BA JUMPI PUSH1 0x40 MLOAD PUSH3 0x461BCD PUSH1 0xE5 SHL DUP2 MSTORE PUSH1 0x20 PUSH1 0x4 DUP3 ADD MSTORE PUSH1 0x19 PUSH1 0x24 DUP3 ADD MSTORE PUSH32 0x4C696665436F6E74726163743A206E6F7420616E206865697200000000000000 PUSH1 0x44 DUP3 ADD MSTORE PUSH1 0x64 ADD PUSH2 0x3B6 JUMP JUMPDEST CALLER PUSH1 0x1 PUSH1 0x1 PUSH1 0xA0 SHL SUB DUP4 AND EQ DUP1 PUSH2 0x4DB JUMPI POP PUSH1 0x0 SLOAD PUSH1 0x1 PUSH1 0x1 PUSH1 0xA0 SHL SUB AND CALLER EQ JUMPDEST PUSH2 0x527 JUMPI PUSH1 0x40 MLOAD PUSH3 0x461BCD PUSH1 0xE5 SHL DUP2 MSTORE PUSH1 0x20 PUSH1 0x4 DUP3 ADD MSTORE PUSH1 0x1C PUSH1 0x24 DUP3 ADD MSTORE PUSH32 0x4C696665436F6E74726163743A206E6F7420617574686F72697A656400000000 PUSH1 0x44 DUP3 ADD MSTORE PUSH1 0x64 ADD PUSH2 0x3B6 JUMP JUMPDEST DUP1 PUSH1 0x0 SUB PUSH2 0x577 JUMPI PUSH1 0x40 MLOAD PUSH3 0x461BCD PUSH1 0xE5 SHL DUP2 MSTORE PUSH1 0x20 PUSH1 0x4 DUP3 ADD MSTORE PUSH1 0x1F PUSH1 0x24 DUP3 ADD MSTORE PUSH32 0x4C696665436F6E74726163743A20696E76616C6964206E756C6C696669657200 PUSH1 0x44 DUP3 ADD MSTORE PUSH1 0x64 ADD PUSH2 0x3B6 JUMP JUMPDEST PUSH1 0x0 DUP2 DUP2 MSTORE PUSH1 0x6 PUSH1 0x20 MSTORE PUSH1 0x40 SWAP1 KECCAK256 SLOAD PUSH1 0xFF AND ISZERO PUSH2 0x5E2 JUMPI PUSH1 0x40 MLOAD PUSH3 0x461BCD PUSH1 0xE5 SHL DUP2 MSTORE PUSH1 0x20 PUSH1 0x4 DUP3 ADD MSTORE PUSH1 0x24 DUP1 DUP3 ADD MSTORE PUSH32 0x4C696665436F6E74726163743A206E756C6C696669657220616C726561647920 PUSH1 0x44 DUP3 ADD MSTORE PUSH4 0x1D5CD959 PUSH1 0xE2 SHL PUSH1 0x64 DUP3 ADD MSTORE PUSH1 0x84 ADD PUSH2 0x3B6 JUMP JUMPDEST PUSH1 0x0 DUP2 DUP2 MSTORE PUSH1 0x6 PUSH1 0x20 MSTORE PUSH1 0x40 DUP2 KECCAK256 DUP1 SLOAD PUSH1 0xFF NOT AND PUSH1 0x1 OR SWAP1 SSTORE JUMPDEST PUSH1 0x4 SLOAD DUP2 LT ISZERO PUSH2 0x702 JUMPI DUP3 PUSH1 0x1 PUSH1 0x1 PUSH1 0xA0 SHL SUB AND PUSH1 0x4 DUP3 DUP2 SLOAD DUP2 LT PUSH2 0x623 JUMPI PUSH2 0x623 PUSH2 0x1081 JUMP JUMPDEST PUSH1 0x0 SWAP2 DUP3 MSTORE PUSH1 0x20 SWAP1 SWAP2 KECCAK256 PUSH1 0x4 SWAP1 SWAP2 MUL ADD SLOAD PUSH1 0x1 PUSH1 0x1 PUSH1 0xA0 SHL SUB AND SUB PUSH2 0x6F0 JUMPI DUP2 PUSH1 0x4 DUP3 DUP2 SLOAD DUP2 LT PUSH2 0x656 JUMPI PUSH2 0x656 PUSH2 0x1081 JUMP JUMPDEST SWAP1 PUSH1 0x0 MSTORE PUSH1 0x20 PUSH1 0x0 KECCAK256 SWAP1 PUSH1 0x4 MUL ADD PUSH1 0x2 ADD DUP2 SWAP1 SSTORE POP PUSH1 0x1 PUSH1 0x4 DUP3 DUP2 SLOAD DUP2 LT PUSH2 0x680 JUMPI PUSH2 0x680 PUSH2 0x1081 JUMP JUMPDEST SWAP1 PUSH1 0x0 MSTORE PUSH1 0x20 PUSH1 0x0 KECCAK256 SWAP1 PUSH1 0x4 MUL ADD PUSH1 0x3 ADD PUSH1 0x0 PUSH2 0x100 EXP DUP2 SLOAD DUP2 PUSH1 0xFF MUL NOT AND SWAP1 DUP4 ISZERO ISZERO MUL OR SWAP1 SSTORE POP DUP3 PUSH1 0x1 PUSH1 0x1 PUSH1 0xA0 SHL SUB AND PUSH32 0x71797EB334A44A551570E47CD81222CFB63CC963DAB1D0680EE1093DEE85C2FB DUP4 PUSH1 0x40 MLOAD PUSH2 0x6E3 SWAP2 DUP2 MSTORE PUSH1 0x20 ADD SWAP1 JUMP JUMPDEST PUSH1 0x40 MLOAD DUP1 SWAP2 SUB SWAP1 LOG2 POP POP POP JUMP JUMPDEST DUP1 PUSH2 0x6FA DUP2 PUSH2 0x1097 JUMP JUMPDEST SWAP2 POP POP PUSH2 0x5FC JUMP JUMPDEST POP POP POP JUMP JUMPDEST PUSH1 0x3 SLOAD PUSH1 0xFF AND ISZERO PUSH2 0x72A JUMPI PUSH1 0x40 MLOAD PUSH3 0x461BCD PUSH1 0xE5 SHL DUP2 MSTORE PUSH1 0x4 ADD PUSH2 0x3B6 SWAP1 PUSH2 0x103C JUMP JUMPDEST PUSH1 0x2 SLOAD PUSH1 0x1 SLOAD PUSH2 0x73A SWAP2 SWAP1 PUSH2 0xFF2 JUMP JUMPDEST TIMESTAMP GT PUSH2 0x794 JUMPI PUSH1 0x40 MLOAD PUSH3 0x461BCD PUSH1 0xE5 SHL DUP2 MSTORE PUSH1 0x20 PUSH1 0x4 DUP3 ADD MSTORE PUSH1 0x23 PUSH1 0x24 DUP3 ADD MSTORE PUSH32 0x4C696665436F6E74726163743A206F776E6572206973207374696C6C20616374 PUSH1 0x44 DUP3 ADD MSTORE PUSH3 0x697665 PUSH1 0xE8 SHL PUSH1 0x64 DUP3 ADD MSTORE PUSH1 0x84 ADD PUSH2 0x3B6 JUMP JUMPDEST PUSH1 0x4 SLOAD PUSH2 0x7ED JUMPI PUSH1 0x40 MLOAD PUSH3 0x461BCD PUSH1 0xE5 SHL DUP2 MSTORE PUSH1 0x20 PUSH1 0x4 DUP3 ADD MSTORE PUSH1 0x21 PUSH1 0x24 DUP3 ADD MSTORE PUSH32 0x4C696665436F6E74726163743A206E6F20686569727320726567697374657265 PUSH1 0x44 DUP3 ADD MSTORE PUSH1 0x19 PUSH1 0xFA SHL PUSH1 0x64 DUP3 ADD MSTORE PUSH1 0x84 ADD PUSH2 0x3B6 JUMP JUMPDEST PUSH1 0x3 DUP1 SLOAD PUSH1 0xFF NOT AND PUSH1 0x1 OR SWAP1 SSTORE SELFBALANCE PUSH1 0x0 JUMPDEST PUSH1 0x4 SLOAD DUP2 LT ISZERO PUSH2 0x962 JUMPI PUSH1 0x0 PUSH1 0x4 DUP3 DUP2 SLOAD DUP2 LT PUSH2 0x81D JUMPI PUSH2 0x81D PUSH2 0x1081 JUMP JUMPDEST SWAP1 PUSH1 0x0 MSTORE PUSH1 0x20 PUSH1 0x0 KECCAK256 SWAP1 PUSH1 0x4 MUL ADD PUSH1 0x1 ADD SLOAD GT DUP1 ISZERO PUSH2 0x83C JUMPI POP PUSH1 0x0 DUP3 GT JUMPDEST ISZERO PUSH2 0x950 JUMPI PUSH1 0x0 PUSH2 0x2710 PUSH1 0x4 DUP4 DUP2 SLOAD DUP2 LT PUSH2 0x859 JUMPI PUSH2 0x859 PUSH2 0x1081 JUMP JUMPDEST SWAP1 PUSH1 0x0 MSTORE PUSH1 0x20 PUSH1 0x0 KECCAK256 SWAP1 PUSH1 0x4 MUL ADD PUSH1 0x1 ADD SLOAD DUP5 PUSH2 0x876 SWAP2 SWAP1 PUSH2 0x10B0 JUMP JUMPDEST PUSH2 0x880 SWAP2 SWAP1 PUSH2 0xFD0 JUMP JUMPDEST SWAP1 POP DUP1 ISZERO PUSH2 0x94E JUMPI PUSH1 0x0 PUSH1 0x4 DUP4 DUP2 SLOAD DUP2 LT PUSH2 0x89D JUMPI PUSH2 0x89D PUSH2 0x1081 JUMP JUMPDEST PUSH1 0x0 SWAP2 DUP3 MSTORE PUSH1 0x20 DUP3 KECCAK256 PUSH1 0x4 SWAP1 SWAP2 MUL ADD SLOAD PUSH1 0x40 MLOAD PUSH1 0x1 PUSH1 0x1 PUSH1 0xA0 SHL SUB SWAP1 SWAP2 AND SWAP2 DUP5 SWAP2 SWAP1 DUP2 DUP2 DUP2 DUP6 DUP8 GAS CALL SWAP3 POP POP POP RETURNDATASIZE DUP1 PUSH1 0x0 DUP2 EQ PUSH2 0x8F6 JUMPI PUSH1 0x40 MLOAD SWAP2 POP PUSH1 0x1F NOT PUSH1 0x3F RETURNDATASIZE ADD AND DUP3 ADD PUSH1 0x40 MSTORE RETURNDATASIZE DUP3 MSTORE RETURNDATASIZE PUSH1 0x0 PUSH1 0x20 DUP5 ADD RETURNDATACOPY PUSH2 0x8FB JUMP JUMPDEST PUSH1 0x60 SWAP2 POP JUMPDEST POP POP SWAP1 POP DUP1 PUSH2 0x94C JUMPI PUSH1 0x40 MLOAD PUSH3 0x461BCD PUSH1 0xE5 SHL DUP2 MSTORE PUSH1 0x20 PUSH1 0x4 DUP3 ADD MSTORE PUSH1 0x1D PUSH1 0x24 DUP3 ADD MSTORE PUSH32 0x4C696665436F6E74726163743A207472616E73666572206661696C6564000000 PUSH1 0x44 DUP3 ADD MSTORE PUSH1 0x64 ADD PUSH2 0x3B6 JUMP JUMPDEST POP JUMPDEST POP JUMPDEST DUP1 PUSH2 0x95A DUP2 PUSH2 0x1097 JUMP JUMPDEST SWAP2 POP POP PUSH2 0x7FE JUMP JUMPDEST POP PUSH1 0x4 SLOAD PUSH1 0x40 MLOAD TIMESTAMP SWAP2 PUSH32 0x4BC83C1B62E2C8393F092F6828CD877F30260DE51B56FD2A05A3113D247E652D SWAP2 PUSH2 0x99F SWAP2 DUP6 DUP3 MSTORE PUSH1 0x20 DUP3 ADD MSTORE PUSH1 0x40 ADD SWAP1 JUMP JUMPDEST PUSH1 0x40 MLOAD DUP1 SWAP2 SUB SWAP1 LOG2 POP JUMP JUMPDEST PUSH1 0x0 SLOAD PUSH1 0x1 PUSH1 0x1 PUSH1 0xA0 SHL SUB AND CALLER EQ PUSH2 0x9D4 JUMPI PUSH1 0x40 MLOAD PUSH3 0x461BCD PUSH1 0xE5 SHL DUP2 MSTORE PUSH1 0x4 ADD PUSH2 0x3B6 SWAP1 PUSH2 0x1005 JUMP JUMPDEST PUSH1 0x3 SLOAD PUSH1 0xFF AND ISZERO PUSH2 0x9F7 JUMPI PUSH1 0x40 MLOAD PUSH3 0x461BCD PUSH1 0xE5 SHL DUP2 MSTORE PUSH1 0x4 ADD PUSH2 0x3B6 SWAP1 PUSH2 0x103C JUMP JUMPDEST PUSH1 0x0 DUP2 GT PUSH2 0xA53 JUMPI PUSH1 0x40 MLOAD PUSH3 0x461BCD PUSH1 0xE5 SHL DUP2 MSTORE PUSH1 0x20 PUSH1 0x4 DUP3 ADD MSTORE PUSH1 0x23 PUSH1 0x24 DUP3 ADD MSTORE PUSH32 0x4C696665436F6E74726163743A207468726573686F6C64206D75737420626520 PUSH1 0x44 DUP3 ADD MSTORE PUSH3 0x3E203 PUSH1 0xEC SHL PUSH1 0x64 DUP3 ADD MSTORE PUSH1 0x84 ADD PUSH2 0x3B6 JUMP JUMPDEST PUSH1 0x2 SLOAD PUSH2 0xA63 DUP3 PUSH3 0x15180 PUSH2 0x10B0 JUMP JUMPDEST PUSH1 0x2 DUP2 SWAP1 SSTORE PUSH1 0x40 DUP1 MLOAD DUP4 DUP2 MSTORE PUSH1 0x20 DUP2 ADD SWAP3 SWAP1 SWAP3 MSTORE PUSH32 0xB06A54CAABE58475C86C2BF9DF3F2F06DD1213E9E10659C293117FE4893B274B SWAP2 ADD PUSH1 0x40 MLOAD DUP1 SWAP2 SUB SWAP1 LOG1 POP POP JUMP JUMPDEST PUSH1 0x0 DUP1 PUSH1 0x0 DUP1 PUSH1 0x4 DUP1 SLOAD SWAP1 POP DUP6 LT PUSH2 0xB0A JUMPI PUSH1 0x40 MLOAD PUSH3 0x461BCD PUSH1 0xE5 SHL DUP2 MSTORE PUSH1 0x20 PUSH1 0x4 DUP3 ADD MSTORE PUSH1 0x21 PUSH1 0x24 DUP3 ADD MSTORE PUSH32 0x4C696665436F6E74726163743A20696E646578206F7574206F6620626F756E64 PUSH1 0x44 DUP3 ADD MSTORE PUSH1 0x73 PUSH1 0xF8 SHL PUSH1 0x64 DUP3 ADD MSTORE PUSH1 0x84 ADD PUSH2 0x3B6 JUMP JUMPDEST PUSH1 0x0 PUSH1 0x4 DUP7 DUP2 SLOAD DUP2 LT PUSH2 0xB1F JUMPI PUSH2 0xB1F PUSH2 0x1081 JUMP JUMPDEST PUSH1 0x0 SWAP2 DUP3 MSTORE PUSH1 0x20 SWAP2 DUP3 SWAP1 KECCAK256 PUSH1 0x40 DUP1 MLOAD PUSH1 0x80 DUP2 ADD DUP3 MSTORE PUSH1 0x4 SWAP4 SWAP1 SWAP4 MUL SWAP1 SWAP2 ADD DUP1 SLOAD PUSH1 0x1 PUSH1 0x1 PUSH1 0xA0 SHL SUB AND DUP1 DUP5 MSTORE PUSH1 0x1 DUP3 ADD SLOAD SWAP5 DUP5 ADD DUP6 SWAP1 MSTORE PUSH1 0x2 DUP3 ADD SLOAD SWAP3 DUP5 ADD DUP4 SWAP1 MSTORE PUSH1 0x3 SWAP1 SWAP2 ADD SLOAD PUSH1 0xFF AND ISZERO ISZERO PUSH1 0x60 SWAP1 SWAP4 ADD DUP4 SWAP1 MSTORE SWAP10 SWAP3 SWAP9 POP SWAP7 POP SWAP5 POP SWAP3 POP POP POP JUMP JUMPDEST PUSH1 0x0 PUSH3 0x15180 PUSH1 0x1 SLOAD TIMESTAMP PUSH2 0xB96 SWAP2 SWAP1 PUSH2 0xFB7 JUMP JUMPDEST PUSH2 0xBA0 SWAP2 SWAP1 PUSH2 0xFD0 JUMP JUMPDEST SWAP1 POP SWAP1 JUMP JUMPDEST PUSH1 0x0 SLOAD PUSH1 0x1 PUSH1 0x1 PUSH1 0xA0 SHL SUB AND CALLER EQ PUSH2 0xBCF JUMPI PUSH1 0x40 MLOAD PUSH3 0x461BCD PUSH1 0xE5 SHL DUP2 MSTORE PUSH1 0x4 ADD PUSH2 0x3B6 SWAP1 PUSH2 0x1005 JUMP JUMPDEST PUSH1 0x3 SLOAD PUSH1 0xFF AND ISZERO PUSH2 0xBF2 JUMPI PUSH1 0x40 MLOAD PUSH3 0x461BCD PUSH1 0xE5 SHL DUP2 MSTORE PUSH1 0x4 ADD PUSH2 0x3B6 SWAP1 PUSH2 0x103C JUMP JUMPDEST PUSH1 0x1 PUSH1 0x1 PUSH1 0xA0 SHL SUB DUP3 AND PUSH2 0xC48 JUMPI PUSH1 0x40 MLOAD PUSH3 0x461BCD PUSH1 0xE5 SHL DUP2 MSTORE PUSH1 0x20 PUSH1 0x4 DUP3 ADD MSTORE PUSH1 0x1A PUSH1 0x24 DUP3 ADD MSTORE PUSH32 0x4C696665436F6E74726163743A207A65726F2061646472657373000000000000 PUSH1 0x44 DUP3 ADD MSTORE PUSH1 0x64 ADD PUSH2 0x3B6 JUMP JUMPDEST PUSH1 0x1 PUSH1 0x1 PUSH1 0xA0 SHL SUB DUP3 AND PUSH1 0x0 SWAP1 DUP2 MSTORE PUSH1 0x5 PUSH1 0x20 MSTORE PUSH1 0x40 SWAP1 KECCAK256 SLOAD PUSH1 0xFF AND ISZERO PUSH2 0xCB1 JUMPI PUSH1 0x40 MLOAD PUSH3 0x461BCD PUSH1 0xE5 SHL DUP2 MSTORE PUSH1 0x20 PUSH1 0x4 DUP3 ADD MSTORE PUSH1 0x1D PUSH1 0x24 DUP3 ADD MSTORE PUSH32 0x4C696665436F6E74726163743A20616C726561647920616E2068656972000000 PUSH1 0x44 DUP3 ADD MSTORE PUSH1 0x64 ADD PUSH2 0x3B6 JUMP JUMPDEST PUSH1 0x0 DUP2 GT DUP1 ISZERO PUSH2 0xCC3 JUMPI POP PUSH2 0x2710 DUP2 GT ISZERO JUMPDEST PUSH2 0xD0F JUMPI PUSH1 0x40 MLOAD PUSH3 0x461BCD PUSH1 0xE5 SHL DUP2 MSTORE PUSH1 0x20 PUSH1 0x4 DUP3 ADD DUP2 SWAP1 MSTORE PUSH1 0x24 DUP3 ADD MSTORE PUSH32 0x4C696665436F6E74726163743A20696E76616C696420616C6C6F636174696F6E PUSH1 0x44 DUP3 ADD MSTORE PUSH1 0x64 ADD PUSH2 0x3B6 JUMP JUMPDEST PUSH1 0x0 DUP1 JUMPDEST PUSH1 0x4 SLOAD DUP2 LT ISZERO PUSH2 0xD61 JUMPI PUSH1 0x4 DUP2 DUP2 SLOAD DUP2 LT PUSH2 0xD30 JUMPI PUSH2 0xD30 PUSH2 0x1081 JUMP JUMPDEST SWAP1 PUSH1 0x0 MSTORE PUSH1 0x20 PUSH1 0x0 KECCAK256 SWAP1 PUSH1 0x4 MUL ADD PUSH1 0x1 ADD SLOAD DUP3 PUSH2 0xD4D SWAP2 SWAP1 PUSH2 0xFF2 JUMP JUMPDEST SWAP2 POP DUP1 PUSH2 0xD59 DUP2 PUSH2 0x1097 JUMP JUMPDEST SWAP2 POP POP PUSH2 0xD13 JUMP JUMPDEST POP PUSH2 0x2710 PUSH2 0xD6F DUP4 DUP4 PUSH2 0xFF2 JUMP JUMPDEST GT ISZERO PUSH2 0xDCB JUMPI PUSH1 0x40 MLOAD PUSH3 0x461BCD PUSH1 0xE5 SHL DUP2 MSTORE PUSH1 0x20 PUSH1 0x4 DUP3 ADD MSTORE PUSH1 0x25 PUSH1 0x24 DUP3 ADD MSTORE PUSH32 0x4C696665436F6E74726163743A20746F74616C20616C6C6F636174696F6E203E PUSH1 0x44 DUP3 ADD MSTORE PUSH5 0x2031303025 PUSH1 0xD8 SHL PUSH1 0x64 DUP3 ADD MSTORE PUSH1 0x84 ADD PUSH2 0x3B6 JUMP JUMPDEST PUSH1 0x40 DUP1 MLOAD PUSH1 0x80 DUP2 ADD DUP3 MSTORE PUSH1 0x1 PUSH1 0x1 PUSH1 0xA0 SHL SUB DUP1 DUP7 AND DUP1 DUP4 MSTORE PUSH1 0x20 DUP1 DUP5 ADD DUP8 DUP2 MSTORE PUSH1 0x0 DUP6 DUP8 ADD DUP2 DUP2 MSTORE PUSH1 0x60 DUP8 ADD DUP3 DUP2 MSTORE PUSH1 0x4 DUP1 SLOAD PUSH1 0x1 DUP2 DUP2 ADD DUP4 SSTORE DUP3 DUP7 MSTORE SWAP10 MLOAD SWAP2 MUL PUSH32 0x8A35ACFBC15FF81A39AE7D344FD709F28E8600B4AA8C65C6B64BFE7FE36BD19B DUP2 ADD DUP1 SLOAD SWAP3 SWAP1 SWAP10 AND PUSH1 0x1 PUSH1 0x1 PUSH1 0xA0 SHL SUB NOT SWAP1 SWAP3 AND SWAP2 SWAP1 SWAP2 OR SWAP1 SWAP8 SSTORE SWAP3 MLOAD PUSH32 0x8A35ACFBC15FF81A39AE7D344FD709F28E8600B4AA8C65C6B64BFE7FE36BD19C DUP8 ADD SSTORE MLOAD PUSH32 0x8A35ACFBC15FF81A39AE7D344FD709F28E8600B4AA8C65C6B64BFE7FE36BD19D DUP7 ADD SSTORE SWAP1 MLOAD PUSH32 0x8A35ACFBC15FF81A39AE7D344FD709F28E8600B4AA8C65C6B64BFE7FE36BD19E SWAP1 SWAP5 ADD DUP1 SLOAD SWAP5 ISZERO ISZERO PUSH1 0xFF NOT SWAP6 DUP7 AND OR SWAP1 SSTORE DUP3 DUP2 MSTORE PUSH1 0x5 SWAP1 SWAP2 MSTORE DUP5 SWAP1 KECCAK256 DUP1 SLOAD SWAP1 SWAP3 AND SWAP1 SWAP3 OR SWAP1 SSTORE SWAP1 MLOAD PUSH32 0x53ECD725315076D49DE41E105A400B4659B4EB2060F6677E74E2A4CB645B4785 SWAP1 PUSH2 0x6E3 SWAP1 DUP6 DUP2 MSTORE PUSH1 0x20 ADD SWAP1 JUMP JUMPDEST PUSH1 0x0 PUSH3 0x15180 PUSH1 0x2 SLOAD PUSH2 0xBA0 SWAP2 SWAP1 PUSH2 0xFD0 JUMP JUMPDEST PUSH1 0x1 PUSH1 0x1 PUSH1 0xA0 SHL SUB DUP2 AND DUP2 EQ PUSH2 0xF35 JUMPI PUSH1 0x0 DUP1 REVERT JUMPDEST POP JUMP JUMPDEST PUSH1 0x0 PUSH1 0x20 DUP3 DUP5 SUB SLT ISZERO PUSH2 0xF4A JUMPI PUSH1 0x0 DUP1 REVERT JUMPDEST DUP2 CALLDATALOAD PUSH2 0xF55 DUP2 PUSH2 0xF20 JUMP JUMPDEST SWAP4 SWAP3 POP POP POP JUMP JUMPDEST PUSH1 0x0 DUP1 PUSH1 0x40 DUP4 DUP6 SUB SLT ISZERO PUSH2 0xF6F JUMPI PUSH1 0x0 DUP1 REVERT JUMPDEST DUP3 CALLDATALOAD PUSH2 0xF7A DUP2 PUSH2 0xF20 JUMP JUMPDEST SWAP5 PUSH1 0x20 SWAP4 SWAP1 SWAP4 ADD CALLDATALOAD SWAP4 POP POP POP JUMP JUMPDEST PUSH1 0x0 PUSH1 0x20 DUP3 DUP5 SUB SLT ISZERO PUSH2 0xF9A JUMPI PUSH1 0x0 DUP1 REVERT JUMPDEST POP CALLDATALOAD SWAP2 SWAP1 POP JUMP JUMPDEST PUSH4 0x4E487B71 PUSH1 0xE0 SHL PUSH1 0x0 MSTORE PUSH1 0x11 PUSH1 0x4 MSTORE PUSH1 0x24 PUSH1 0x0 REVERT JUMPDEST DUP2 DUP2 SUB DUP2 DUP2 GT ISZERO PUSH2 0xFCA JUMPI PUSH2 0xFCA PUSH2 0xFA1 JUMP JUMPDEST SWAP3 SWAP2 POP POP JUMP JUMPDEST PUSH1 0x0 DUP3 PUSH2 0xFED JUMPI PUSH4 0x4E487B71 PUSH1 0xE0 SHL PUSH1 0x0 MSTORE PUSH1 0x12 PUSH1 0x4 MSTORE PUSH1 0x24 PUSH1 0x0 REVERT JUMPDEST POP DIV SWAP1 JUMP JUMPDEST DUP1 DUP3 ADD DUP1 DUP3 GT ISZERO PUSH2 0xFCA JUMPI PUSH2 0xFCA PUSH2 0xFA1 JUMP JUMPDEST PUSH1 0x20 DUP1 DUP3 MSTORE PUSH1 0x17 SWAP1 DUP3 ADD MSTORE PUSH32 0x4C696665436F6E74726163743A206E6F74206F776E6572000000000000000000 PUSH1 0x40 DUP3 ADD MSTORE PUSH1 0x60 ADD SWAP1 JUMP JUMPDEST PUSH1 0x20 DUP1 DUP3 MSTORE PUSH1 0x25 SWAP1 DUP3 ADD MSTORE PUSH32 0x4C696665436F6E74726163743A2065737461746520616C726561647920657865 PUSH1 0x40 DUP3 ADD MSTORE PUSH5 0x18DD5D1959 PUSH1 0xDA SHL PUSH1 0x60 DUP3 ADD MSTORE PUSH1 0x80 ADD SWAP1 JUMP JUMPDEST PUSH4 0x4E487B71 PUSH1 0xE0 SHL PUSH1 0x0 MSTORE PUSH1 0x32 PUSH1 0x4 MSTORE PUSH1 0x24 PUSH1 0x0 REVERT JUMPDEST PUSH1 0x0 PUSH1 0x1 DUP3 ADD PUSH2 0x10A9 JUMPI PUSH2 0x10A9 PUSH2 0xFA1 JUMP JUMPDEST POP PUSH1 0x1 ADD SWAP1 JUMP JUMPDEST DUP1 DUP3 MUL DUP2 ISZERO DUP3 DUP3 DIV DUP5 EQ OR PUSH2 0xFCA JUMPI PUSH2 0xFCA PUSH2 0xFA1 JUMP INVALID LOG2 PUSH5 0x6970667358 0x22 SLT KECCAK256 0x2A 0xBF 0xD7 0xD3 PUSH8 0xA823445CF9F878A2 0x5C 0xB0 SELFDESTRUCT 0xB1 0xD 0xA7 0xE2 0xE6 SELFDESTRUCT LOG1 0xC9 0xFB SWAP13 0xA7 LOG2 SWAP10 0xD5 0xC0 PUSH3 0x64736F PUSH13 0x63430008140033000000000000 "},"methodIdentifiers":{"addHeir(address,uint256)":"9cdd47f2","executeEstate()":"6d820fda","executed()":"31a38c89","getDaysElapsed()":"9b3f256d","getHeir(uint256)":"975c2308","getHeirsCount()":"598f6a16","getStatus()":"4e69d560","getThresholdDays()":"e4c16483","isHeir(address)":"568ddfc6","isInactive()":"5e829a02","lastPing()":"2760c57e","owner()":"8da5cb5b","ping()":"5c36b186","registerHeir(address,uint256)":"6a156840","setThreshold(uint256)":"960bfe04","threshold()":"42cde4e8"}}}}}