{
  "_format": "hh-sol-artifact-1",
  "contractName": "LifeContract",
  "sourceName": "contracts/LifeContract.sol",
  "abi": [
    {
      "inputs": [
        {
          "internalType": "uint256",
          "name": "thresholdDays",
          "type": "uint256"
        }
      ],
      "stateMutability": "nonpayable",
      "type": "constructor"
    },
    {
      "anonymous": false,
      "inputs": [
        {
          "indexed": true,
          "internalType": "uint256",
          "name": "timestamp",
          "type": "uint256"
        },
        {
          "indexed": false,
          "internalType": "uint256",
          "name": "totalValue",
          "type": "uint256"
        },
        {
          "indexed": false,
          "internalType": "uint256",
          "name": "heirCount",
          "type": "uint256"
        }
      ],
      "name": "EstateExecuted",
      "type": "event"
    },
    {
      "anonymous": false,
      "inputs": [
        {
          "indexed": true,
          "internalType": "uint256",
          "name": "timestamp",
          "type": "uint256"
        },
        {
          "indexed": true,
          "internalType": "address",
          "name": "caller",
          "type": "address"
        }
      ],
      "name": "HeartbeatReceived",
      "type": "event"
    },
    {
      "anonymous": false,
      "inputs": [
        {
          "indexed": true,
          "internalType": "address",
          "name": "heir",
          "type": "address"
        },
        {
          "indexed": false,
          "internalType": "uint256",
          "name": "allocationBps",
          "type": "uint256"
        }
      ],
      "name": "HeirAdded",
      "type": "event"
    },
    {
      "anonymous": false,
      "inputs": [
        {
          "indexed": true,
          "internalType": "address",
          "name": "heir",
          "type": "address"
        },
        {
          "indexed": false,
          "internalType": "uint256",
          "name": "nullifierHash",
          "type": "uint256"
        }
      ],
      "name": "HeirRegistered",
      "type": "event"
    },
    {
      "anonymous": false,
      "inputs": [
        {
          "indexed": false,
          "internalType": "uint256",
          "name": "oldThreshold",
          "type": "uint256"
        },
        {
          "indexed": false,
          "internalType": "uint256",
          "name": "newThreshold",
          "type": "uint256"
        }
      ],
      "name": "ThresholdUpdated",
      "type": "event"
    },
    {
      "stateMutability": "payable",
      "type": "fallback"
    },
    {
      "inputs": [
        {
          "internalType": "address payable",
          "name": "heir_",
          "type": "address"
        },
        {
          "internalType": "uint256",
          "name": "allocationBps_",
          "type": "uint256"
        }
      ],
      "name": "addHeir",
      "outputs": [],
      "stateMutability": "nonpayable",
      "type": "function"
    },
    {
      "inputs": [],
      "name": "executeEstate",
      "outputs": [],
      "stateMutability": "nonpayable",
      "type": "function"
    },
    {
      "inputs": [],
      "name": "executed",
      "outputs": [
        {
          "internalType": "bool",
          "name": "",
          "type": "bool"
        }
      ],
      "stateMutability": "view",
      "type": "function"
    },
    {
      "inputs": [],
      "name": "getDaysElapsed",
      "outputs": [
        {
          "internalType": "uint256",
          "name": "",
          "type": "uint256"
        }
      ],
      "stateMutability": "view",
      "type": "function"
    },
    {
      "inputs": [
        {
          "internalType": "uint256",
          "name": "index",
          "type": "uint256"
        }
      ],
      "name": "getHeir",
      "outputs": [
        {
          "internalType": "address",
          "name": "wallet",
          "type": "address"
        },
        {
          "internalType": "uint256",
          "name": "allocationBps",
          "type": "uint256"
        },
        {
          "internalType": "uint256",
          "name": "nullifierHash",
          "type": "uint256"
        },
        {
          "internalType": "bool",
          "name": "isVerified",
          "type": "bool"
        }
      ],
      "stateMutability": "view",
      "type": "function"
    },
    {
      "inputs": [],
      "name": "getHeirsCount",
      "outputs": [
        {
          "internalType": "uint256",
          "name": "",
          "type": "uint256"
        }
      ],
      "stateMutability": "view",
      "type": "function"
    },
    {
      "inputs": [],
      "name": "getStatus",
      "outputs": [
        {
          "internalType": "uint256",
          "name": "lastPing_",
          "type": "uint256"
        },
        {
          "internalType": "uint256",
          "name": "threshold_",
          "type": "uint256"
        },
        {
          "internalType": "uint256",
          "name": "daysElapsed",
          "type": "uint256"
        },
        {
          "internalType": "uint256",
          "name": "thresholdDays",
          "type": "uint256"
        },
        {
          "internalType": "bool",
          "name": "inactive",
          "type": "bool"
        }
      ],
      "stateMutability": "view",
      "type": "function"
    },
    {
      "inputs": [],
      "name": "getThresholdDays",
      "outputs": [
        {
          "internalType": "uint256",
          "name": "",
          "type": "uint256"
        }
      ],
      "stateMutability": "view",
      "type": "function"
    },
    {
      "inputs": [
        {
          "internalType": "address",
          "name": "",
          "type": "address"
        }
      ],
      "name": "isHeir",
      "outputs": [
        {
          "internalType": "bool",
          "name": "",
          "type": "bool"
        }
      ],
      "stateMutability": "view",
      "type": "function"
    },
    {
      "inputs": [],
      "name": "isInactive",
      "outputs": [
        {
          "internalType": "bool",
          "name": "",
          "type": "bool"
        }
      ],
      "stateMutability": "view",
      "type": "function"
    },
    {
      "inputs": [],
      "name": "lastPing",
      "outputs": [
        {
          "internalType": "uint256",
          "name": "",
          "type": "uint256"
        }
      ],
      "stateMutability": "view",
      "type": "function"
    },
    {
      "inputs": [],
      "name": "owner",
      "outputs": [
        {
          "internalType": "address",
          "name": "",
          "type": "address"
        }
      ],
      "stateMutability": "view",
      "type": "function"
    },
    {
      "inputs": [],
      "name": "ping",
      "outputs": [],
      "stateMutability": "nonpayable",
      "type": "function"
    },
    {
      "inputs": [
        {
          "internalType": "address",
          "name": "heir_",
          "type": "address"
        },
        {
          "internalType": "uint256",
          "name": "nullifierHash_",
          "type": "uint256"
        }
      ],
      "name": "registerHeir",
      "outputs": [],
      "stateMutability": "nonpayable",
      "type": "function"
    },
    {
      "inputs": [
        {
          "internalType": "uint256",
          "name": "thresholdDays",
          "type": "uint256"
        }
      ],
      "name": "setThreshold",
      "outputs": [],
      "stateMutability": "nonpayable",
      "type": "function"
    },
    {
      "inputs": [],
      "name": "threshold",
      "outputs": [
        {
          "internalType": "uint256",
          "name": "",
          "type": "uint256"
        }
      ],
      "stateMutability": "view",
      "type": "function"
    },
    {
      "stateMutability": "payable",
      "type": "receive"
    }
  ],
  "bytecode": "0x608060405234801561001057600080fd5b5060405161120b38038061120b83398101604081905261002f916100bb565b6000811161008f5760405162461bcd60e51b815260206004820152602360248201527f4c696665436f6e74726163743a207468726573686f6c64206d7573742062652060448201526203e20360ec1b606482015260840160405180910390fd5b600080546001600160a01b031916331790556100ae81620151806100d4565b60025550426001556100ff565b6000602082840312156100cd57600080fd5b5051919050565b80820281158282048414176100f957634e487b7160e01b600052601160045260246000fd5b92915050565b6110fd8061010e6000396000f3fe6080604052600436106100eb5760003560e01c80636a15684011610084578063975c230811610056578063975c2308146102985780639b3f256d146102e45780639cdd47f2146102f9578063e4c164831461031957005b80636a1568401461020b5780636d820fda1461022b5780638da5cb5b14610240578063960bfe041461027857005b8063568ddfc6116100bd578063568ddfc61461019c578063598f6a16146101cc5780635c36b186146101e15780635e829a02146101f657005b80632760c57e146100f457806331a38c891461011d57806342cde4e8146101475780634e69d5601461015d57005b366100f257005b005b34801561010057600080fd5b5061010a60015481565b6040519081526020015b60405180910390f35b34801561012957600080fd5b506003546101379060ff1681565b6040519015158152602001610114565b34801561015357600080fd5b5061010a60025481565b34801561016957600080fd5b5061017261032e565b6040805195865260208601949094529284019190915260608301521515608082015260a001610114565b3480156101a857600080fd5b506101376101b7366004610f38565b60056020526000908152604090205460ff1681565b3480156101d857600080fd5b5060045461010a565b3480156101ed57600080fd5b506100f261038c565b34801561020257600080fd5b50610137610416565b34801561021757600080fd5b506100f2610226366004610f5c565b61042f565b34801561023757600080fd5b506100f2610707565b34801561024c57600080fd5b50600054610260906001600160a01b031681565b6040516001600160a01b039091168152602001610114565b34801561028457600080fd5b506100f2610293366004610f88565b6109aa565b3480156102a457600080fd5b506102b86102b3366004610f88565b610aa6565b604080516001600160a01b03909516855260208501939093529183015215156060820152608001610114565b3480156102f057600080fd5b5061010a610b82565b34801561030557600080fd5b506100f2610314366004610f5c565b610ba5565b34801561032557600080fd5b5061010a610f0d565b6000806000806000600154600254620151806001544261034e9190610fb7565b6103589190610fd0565b620151806002546103699190610fd0565b6002546001546103799190610ff2565b4211945094509450945094509091929394565b6000546001600160a01b031633146103bf5760405162461bcd60e51b81526004016103b690611005565b60405180910390fd5b60035460ff16156103e25760405162461bcd60e51b81526004016103b69061103c565b4260018190556040513391907f427757034ecd29604838dce1dd129f0fef437e80439c32b7c995151fd5f563fd90600090a3565b60006002546001546104289190610ff2565b4211905090565b60035460ff16156104525760405162461bcd60e51b81526004016103b69061103c565b6001600160a01b03821660009081526005602052604090205460ff166104ba5760405162461bcd60e51b815260206004820152601960248201527f4c696665436f6e74726163743a206e6f7420616e20686569720000000000000060448201526064016103b6565b336001600160a01b03831614806104db57506000546001600160a01b031633145b6105275760405162461bcd60e51b815260206004820152601c60248201527f4c696665436f6e74726163743a206e6f7420617574686f72697a65640000000060448201526064016103b6565b806000036105775760405162461bcd60e51b815260206004820152601f60248201527f4c696665436f6e74726163743a20696e76616c6964206e756c6c69666965720060448201526064016103b6565b60008181526006602052604090205460ff16156105e25760405162461bcd60e51b8152602060048201526024808201527f4c696665436f6e74726163743a206e756c6c696669657220616c7265616479206044820152631d5cd95960e21b60648201526084016103b6565b6000818152600660205260408120805460ff191660011790555b60045481101561070257826001600160a01b03166004828154811061062357610623611081565b60009182526020909120600490910201546001600160a01b0316036106f057816004828154811061065657610656611081565b90600052602060002090600402016002018190555060016004828154811061068057610680611081565b906000526020600020906004020160030160006101000a81548160ff021916908315150217905550826001600160a01b03167f71797eb334a44a551570e47cd81222cfb63cc963dab1d0680ee1093dee85c2fb836040516106e391815260200190565b60405180910390a2505050565b806106fa81611097565b9150506105fc565b505050565b60035460ff161561072a5760405162461bcd60e51b81526004016103b69061103c565b60025460015461073a9190610ff2565b42116107945760405162461bcd60e51b815260206004820152602360248201527f4c696665436f6e74726163743a206f776e6572206973207374696c6c2061637460448201526269766560e81b60648201526084016103b6565b6004546107ed5760405162461bcd60e51b815260206004820152602160248201527f4c696665436f6e74726163743a206e6f206865697273207265676973746572656044820152601960fa1b60648201526084016103b6565b6003805460ff191660011790554760005b6004548110156109625760006004828154811061081d5761081d611081565b90600052602060002090600402016001015411801561083c5750600082115b156109505760006127106004838154811061085957610859611081565b9060005260206000209060040201600101548461087691906110b0565b6108809190610fd0565b9050801561094e5760006004838154811061089d5761089d611081565b600091825260208220600490910201546040516001600160a01b039091169184919081818185875af1925050503d80600081146108f6576040519150601f19603f3d011682016040523d82523d6000602084013e6108fb565b606091505b505090508061094c5760405162461bcd60e51b815260206004820152601d60248201527f4c696665436f6e74726163743a207472616e73666572206661696c656400000060448201526064016103b6565b505b505b8061095a81611097565b9150506107fe565b5060045460405142917f4bc83c1b62e2c8393f092f6828cd877f30260de51b56fd2a05a3113d247e652d9161099f91858252602082015260400190565b60405180910390a250565b6000546001600160a01b031633146109d45760405162461bcd60e51b81526004016103b690611005565b60035460ff16156109f75760405162461bcd60e51b81526004016103b69061103c565b60008111610a535760405162461bcd60e51b815260206004820152602360248201527f4c696665436f6e74726163743a207468726573686f6c64206d7573742062652060448201526203e20360ec1b60648201526084016103b6565b600254610a6382620151806110b0565b60028190556040805183815260208101929092527fb06a54caabe58475c86c2bf9df3f2f06dd1213e9e10659c293117fe4893b274b910160405180910390a15050565b6000806000806004805490508510610b0a5760405162461bcd60e51b815260206004820152602160248201527f4c696665436f6e74726163743a20696e646578206f7574206f6620626f756e646044820152607360f81b60648201526084016103b6565b600060048681548110610b1f57610b1f611081565b60009182526020918290206040805160808101825260049390930290910180546001600160a01b03168084526001820154948401859052600282015492840183905260039091015460ff1615156060909301839052999298509650945092505050565b60006201518060015442610b969190610fb7565b610ba09190610fd0565b905090565b6000546001600160a01b03163314610bcf5760405162461bcd60e51b81526004016103b690611005565b60035460ff1615610bf25760405162461bcd60e51b81526004016103b69061103c565b6001600160a01b038216610c485760405162461bcd60e51b815260206004820152601a60248201527f4c696665436f6e74726163743a207a65726f206164647265737300000000000060448201526064016103b6565b6001600160a01b03821660009081526005602052604090205460ff1615610cb15760405162461bcd60e51b815260206004820152601d60248201527f4c696665436f6e74726163743a20616c726561647920616e206865697200000060448201526064016103b6565b600081118015610cc357506127108111155b610d0f5760405162461bcd60e51b815260206004820181905260248201527f4c696665436f6e74726163743a20696e76616c696420616c6c6f636174696f6e60448201526064016103b6565b6000805b600454811015610d615760048181548110610d3057610d30611081565b90600052602060002090600402016001015482610d4d9190610ff2565b915080610d5981611097565b915050610d13565b50612710610d6f8383610ff2565b1115610dcb5760405162461bcd60e51b815260206004820152602560248201527f4c696665436f6e74726163743a20746f74616c20616c6c6f636174696f6e203e604482015264203130302560d81b60648201526084016103b6565b604080516080810182526001600160a01b0380861680835260208084018781526000858701818152606087018281526004805460018181018355828652995191027f8a35acfbc15ff81a39ae7d344fd709f28e8600b4aa8c65c6b64bfe7fe36bd19b81018054929099166001600160a01b03199092169190911790975592517f8a35acfbc15ff81a39ae7d344fd709f28e8600b4aa8c65c6b64bfe7fe36bd19c870155517f8a35acfbc15ff81a39ae7d344fd709f28e8600b4aa8c65c6b64bfe7fe36bd19d86015590517f8a35acfbc15ff81a39ae7d344fd709f28e8600b4aa8c65c6b64bfe7fe36bd19e909401805494151560ff1995861617905582815260059091528490208054909216909217905590517f53ecd725315076d49de41e105a400b4659b4eb2060f6677e74e2a4cb645b4785906106e39085815260200190565b600062015180600254610ba09190610fd0565b6001600160a01b0381168114610f3557600080fd5b50565b600060208284031215610f4a57600080fd5b8135610f5581610f20565b9392505050565b60008060408385031215610f6f57600080fd5b8235610f7a81610f20565b946020939093013593505050565b600060208284031215610f9a57600080fd5b5035919050565b634e487b7160e01b600052601160045260246000fd5b81810381811115610fca57610fca610fa1565b92915050565b600082610fed57634e487b7160e01b600052601260045260246000fd5b500490565b80820180821115610fca57610fca610fa1565b60208082526017908201527f4c696665436f6e74726163743a206e6f74206f776e6572000000000000000000604082015260600190565b60208082526025908201527f4c696665436f6e74726163743a2065737461746520616c72656164792065786560408201526418dd5d195960da1b606082015260800190565b634e487b7160e01b600052603260045260246000fd5b6000600182016110a9576110a9610fa1565b5060010190565b8082028115828204841417610fca57610fca610fa156fea26469706673582212202abfd7d367a823445cf9f878a25cb0ffb10da7e2e6ffa1c9fb9ca7a299d5c06264736f6c63430008140033",
  "linkReferences": {},
  "deployedLinkReferences": {}
}